S01B0000736373645F73616D7637315F647269766572732E7372656380
S21440000070064020E5014000E1014000E10140006B
S214400010E1014000E1014000E10140000000000035
S214400020000000000000000000000000E101400069
S214400030E101400000000000E1014000E101400015
S214400040E1014000E1014000E1014000E1014000E3
S214400050E1014000E1014000E1014000E1014000D3
S214400060E101400000000000E1014000E1014000E5
S214400070E1014000E1014000E1014000E1014000B3
S214400080E1014000E1014000E1014000E1014000A3
S214400090E1014000E1014000E1014000E101400093
S2144000A0E1014000E1014000E1014000E101400083
S2144000B0E1014000E1014000E1014000E101400073
S2144000C0E1014000E1014000E1014000E101400063
S2144000D0E1014000E1014000E1014000E101400053
S2144000E0E1014000E1014000E1014000E101400043
S2144000F0E1014000E1014000E1014000E101400033
S214400100E1014000E1014000E1014000E101400022
S214400110E1014000E1014000000000000000000056
S214400120E1014000E1014000E1014000E101400002
S214400130E1014000E1014000E1014000E1014000F2
S214400140E1014000E1014000E1014000E1014000E2
S214400150E1014000E1014000E1014000E1014000D2
S214400160E1014000E101400010B5054C237833B969
S214400170044B13B10448AFF300800123237010BD35
S2144001800000402000000000981640000C4B43B191
S2144001900C480D4910B5AFF300800C48036823B9EE
S2144001A010BD0A48036833B97047094B002BF7D097
S2144001B0BDE810401847064B002BF5D0184700BF47
S2144001C000000000981640000400402098164000AA
S2144001D00000000008B5014B984708BD7104400078
S2144001E0FEE7000008B5104B104A9A4209D00E4B65
S2144001F00E4A03E011681960043304320C498B42FE
S214400200F8D30C4B02E000221A6004330A4A9342A9
S214400210F9D30A4A0A4B23F07F039360094B984769
S214400220094B9847FEE700BF000040209816400064
S21440023000004020000040206C00402000ED00E020
S2144002400000400051154000510C4000304B4FF428
S21440025000625A611A66C3F89020196F21F4006153
S2144002601967596F21F4006159675A604FF400527C
S2144002701A615A631A66C3F89020196F21F4005128
S2144002801967596F21F4005159675A604FF48052EC
S2144002901A615A631A66C3F89020196F21F4805188
S2144002A01967596F21F4805159675A604FF40032EC
S2144002B01A615A631A66C3F89020196F21F4003108
S2144002C01967596F21F4003159675A60114A4FF047
S2144002D00041116151631166C2F89010106F20F012
S2144002E000401067506F20F00040506751604FF458
S2144002F080425A611A66C3F89020196F21F48041F3
S2144003001967596F21F4804159675A60704700BF9A
S214400310000E0E4000140E40054BD3F8083113F47F
S214400320006F04D14FF40062014BC3F800217047C0
S21440033000060E4008B5044B984704490448054B50
S2144003409847054B984708BD1903400000C0074032
S21440035048004020E50540004D024000114B1A6F12
S21440036042F480121A675A6F22F480125A674FF48A
S21440037080125A601A6F42F400121A675A6F22F4BB
S21440038000125A674FF400125A601A6F42F4800205
S2144003901A675A6F22F480025A674FF480025A60F6
S2144003A0704700BF00140E40044B9B6913F4001FB7
S2144003B003D14FF40012014B1A61704700060E40FD
S2144003C010B5084B9847084B9847084C01462046BE
S2144003D0074B984707492046074B9847074B98478F
S2144003E010BD00BFA9034000410A40003000402035
S2144003F01506400000800040350640005D03400082
S2144004000A4B1A6F22F010021A675A6F22F0100237
S2144004105A6710225A601A6F22F008021A675A6FFB
S21440042022F008025A6708225A607047000E0E40B3
S214400430044B9B6913F4002F03D14FF40022014B69
S2144004401A61704700060E4008B5044B98470449A9
S2144004500448054B9847054B984708BD3104400073
S214400460008001404C00402021054000010440002F
S21440047008B5074B9847074A536843F40043536010
S214400480054B9847054B9847054B984708BD00BF16
S2144004904507400050180E4035034000C103400059
S2144004A049044000EFF31083036072B6BFF35F8FDA
S2144004B07047BFF35F8F036883F310887047000070
S2144004C010B584B00389ADF80430144602924FF458
S2144004D00043ADF80630039101A91438034B984702
S2144004E010B9204604B010BD0446FAE7E90A4000B9
S2144004F010B584B00389ADF804301446029248F231
S2144005000103ADF80630039101A91438034B984710
S21440051010B9204604B010BD0446FAE7E90A400088
S21440052038B50D4604465E220849003018BF012003
S214400530074B984729462046064B9847034618B926
S214400540054AA261054A6261184638BD98154000C2
S2144005503D0740007D0A4000F1044000C1044000D1
S21440056008B5014B984708BDC50A4000C1F30901CC
S21440057002F480620A438283104670471430086053
S2144005800020704770B5164604460D46002818BF32
S214400590002914BF0120002034220449044B984708
S2144005A02368324629462046984770BDB415400019
S2144005B03D07400070B5164604460D46002818BF55
S2144005C0002914BF012000203D220449044B9847CF
S2144005D06368324629462046984770BDB4154000A9
S2144005E03D07400038B504460D46002818BF002990
S2144005F014BF0120002031220349044B9847294666
S2144006002046034B984738BDC81540003D0740007C
S2144006104908400038B50D460446392203490030A3
S21440062018BF0120024B9847256038BDE4154000AE
S2144006303D07400038B504460D46002818BF00293F
S21440064014BF01200020402209490A4B9847204603
S21440065040F8045F2946084B9847002807DB4FF4CC
S2144006600043A382054B2361054BE360002038BD61
S214400670E41540003D07400099084000010740004F
S214400680C506400030B585B005460C46002818BF64
S214400690002914BF01200020B3220749074B984782
S2144006A02368019363680293A368039301A9281DF6
S2144006B0034B984705B030BDE41540003D07400069
S2144006C04109400070B584B00E4615460446A32244
S2144006D00849003018BF0120074B98470023029373
S2144006E00196039501A9A4F10C00044B984704B069
S2144006F070BD00BFE41540003D0740008506400041
S21440070070B584B00E461546044687220849003028
S21440071018BF0120074B9847029600230193039584
S21440072001A9A4F10C00044B984704B070BD00BF6B
S214400730E41540003D0740008506400000B900BE75
S2144007407047000000B583B001A80E4B98470E4A8C
S214400750D2F8883043F47003C2F88830BFF34F8F26
S214400760BFF36F8F01A8094B9847094A136823F4D3
S214400770706343F4C0631360064B984703B05DF85C
S21440078004FB00BFA504400000ED00E0B3044000B9
S214400790000C0E40350840000E490A6A22F002025C
S2144007A00D4B13430B620B4B9B6E13F0010FFAD0AD
S2144007B0084B196A094A0A431A62996A084A0A4063
S2144007C09A62084A9A62034B9B6E13F0020FFAD065
S2144007D0704700BF00060E40013E3700000037015C
S2144007E0FFFF00F8013F1820114A136B23F07003F7
S2144007F013630F4B9B6E13F0080FFAD00C4A136B23
S21440080023F4407343F480731363094B9B6E13F0D9
S214400810080FFAD0064A136B23F0030343F0020393
S2144008201363034B9B6E13F0080FFAD0704700BF5C
S21440083000060E4008B5024B9847024B984708BD45
S21440084099074000E907400038B505460C460028A1
S21440085018BF002914BF0120002041220649074B3B
S21440086098472C6080232360112363604FF4007305
S2144008702362002038BD00BF001640003D07400000
S214400880044B0344C3F30743052B01D000207047B5
S214400890012070470080FFBF70B506460C460846EC
S2144008A0204B984700233BB300254FF49A721E49CD
S2144008B0002E18BF002C14BF012000201B4B984769
S2144008C055B3236913F4803F29D1802323603460D5
S2144008D06A68174B13402360AB68164A1A40164B9B
S2144008E013436360EB6823632B8AF380EB6803F063
S2144008F0F0033371002070BD03EB83018A000F497B
S2144009008A5C904202D00133DBB2CCE703EB83052E
S214400910AB000D461D44C8E76FF00C0070BD6FF08D
S214400920100070BD810840002C1640003D07400076
S2144009307CFFFFFE6FFFF1FF10000E001816400010
S2144009402DE9F04186B007460D4604680B680193D2
S2144009504B68029300230393049303798DF8143075
S214400960261C18BF012640F23122334900280CBF0E
S214400970002006F00100314B9847236913F4803F6E
S21440098022D16FF0130053E0002335E0507841EA5F
S21440099000210232019201330393E160D4F81080C3
S2144009A040F2222224493046244B984718F0080F3C
S2144009B038D06FF01200002836DB0398AB689842B8
S2144009C002D3049A93422FD9236913F0010FDBD048
S2144009D0A3689BB2029A5AB1511C029113709DF8BB
S2144009E01420012A04D90A46013102911B0A1370C9
S2144009F0049B013304930123002BCFD1039B049A1D
S214400A009A42CBD3F988226912F0020FC6D0019AD7
S214400A10002AC0D0511C019111789DF8140001287D
S214400A20B4D8B8E70020C6E7236913F4007FFBD0AC
S214400A3006B0BDE8F08100BF2C1640003D074000E0
S214400A400020704700233BB10020704703EB43046F
S214400A50E300084618440CE010B403EB4301CA0018
S214400A6005498A588242F1D00133DBB2002BF4D0DC
S214400A7000205DF8044B70474416400038B50446E5
S214400A800D46002818BF002914BF012000207822F8
S214400A9009490A4B984725612846094B98474368B9
S214400AA02B60236982689A632369C2685A64236903
S214400AB002691A61002038BD5C1640003D074000C0
S214400AC0450A400010B5044695220549003018BF37
S214400AD00120044B9847236904221A60002010BD69
S214400AE05C1640003D07400038B504460D460028D9
S214400AF018BF002914BF01200020BA225249534B88
S214400B009847638813F4807F40F09A806B8813F090
S214400B10010F18D16B889BB243F480736B802B888F
S214400B2013F4806F5FD022691B0A43F078031B04DE
S214400B3003F4FE0343F48073536023692A78DA6033
S214400B40002001465CE06B889BB243F480736B8068
S214400B502B8813F4806F22D022691B0A43F0780357
S214400B601B0403F4FE0343F48853536023692A7836
S214400B70DA6023696A68012A19D001221A600021C6
S214400B806B68994222D223691A6A12F0020F10D17A
S214400B901B6A13F4807FF6D06FF0010038BD2269DF
S214400BA01B0403F4FE0343F480535360E1E703223F
S214400BB0E4E7AA681B6B53546B68023B994201D02A
S214400BC00131DDE7236902221A60F9E723691B6ACF
S214400BD013F0010FFAD063889BB223F480739BB264
S214400BE06380002038BD22691B0403F4FE03536073
S214400BF0A6E76FF0010078B9AB685B5C53630131E0
S214400C006B68994208D22269136A13F4807FF0D148
S214400C1013F0040FF7D0EEE76B8813F4004F06D1BD
S214400C2063889BB223F480739BB2638038BD23698C
S214400C3002221A6023691B6A13F0010FFAD0EFE70D
S214400C406FF0050038BD00BF5C1640003D07400011
S214400C5008B5094B9847094B98470020084DA847C8
S214400C60084C2060084B98470020A847206000208A
S214400C70A8472060F1E700BFD50140008D0C40003A
S214400C80E10C40001C004020590D400038B50D4C8A
S214400C900D4D214628460D4B984728460C4B984705
S214400CA04FF40062452128460A4B98470A23237191
S214400CB0322363713823A3710322211D2068064B1B
S214400CC0984738BD200040204C0040207D0540001D
S214400CD0610540006D0540008505400000000000AD
S214400CE070B5174C0025264606F8045F01223146AB
S214400CF02068144B984725716571A571E5710422EB
S214400D0031462068104B9847237918091B0203F494
S214400D10706362791343A27902EB032303FA00F06F
S214400D200A4B984704A3D3E90023094CA047094B34
S214400D30984770BDAFF30080B9196EC0E787413F52
S214400D402000402085054000B505400001104000C9
S214400D50ED1040001115400008B5064B0A221A71E6
S214400D6032225A7128229A710322191D1868024BA2
S214400D70984708BD200040208505400081F000418E
S214400D8002E000BF83F0004330B54FEA41044FEA2B
S214400D90430594EA050F08BF90EA020F1FBF54EAC6
S214400DA0000C55EA020C7FEA645C7FEA655C00F062
S214400DB0E2804FEA5454D4EB5555B8BF6D420CDD33
S214400DC02C4480EA020281EA030382EA000083EAB6
S214400DD0010180EA020281EA0303362D88BF30BD56
S214400DE011F0004F4FEA01314FF4801C4CEA1131AC
S214400DF002D0404261EB410113F0004F4FEA03330B
S214400E004CEA133302D0524263EB430394EA050F95
S214400E1000F0A780A4F10104D5F1200E0DDB02FA04
S214400E200EFC22FA05F2801841F1000103FA0EF298
S214400E30801843FA05F359410EE0A5F120050EF15E
S214400E40200E012A03FA0EFC28BF4CF0020C43FA8F
S214400E5005F3C01851EBE37101F0004507D54FF09C
S214400E60000EDCF1000C7EEB00006EEB0101B1F5EC
S214400E70801F1BD3B1F5001F0CD349085FEA300032
S214400E804FEA3C0C04F101044FEA445212F5800F3D
S214400E9080F09A80BCF1004F08BF5FEA500C50F1DA
S214400EA0000041EB045141EA050130BD5FEA4C0CBD
S214400EB0404141EB010111F4801FA4F10104E9D146
S214400EC091F0000F04BF01460020B1FA81F308BF3D
S214400ED02033A3F10B03B3F120020CDA0C3208DD09
S214400EE002F1140CC2F10C0201FA0CF021FA02F1E4
S214400EF00CE002F11402D8BFC2F1200C01FA02F154
S214400F0020FA0CFCDCBF41EA0C019040E41AA2BF78
S214400F1001EB0451294330BD6FEA04041F3C1CDA40
S214400F200C340EDC04F11404C4F1200220FA04F060
S214400F3001FA02F340EA030021FA04F345EA03010A
S214400F4030BDC4F10C04C4F1200220FA02F001FACC
S214400F5004F340EA0300294630BD21FA04F029464E
S214400F6030BD94F0000F83F4801306BF81F48011E7
S214400F700134013D4EE77FEA645C18BF7FEA655C5A
S214400F8029D094EA050F08BF90EA020F05D054EA2C
S214400F90000C04BF1946104630BD91EA030F1EBF31
S214400FA00021002030BD5FEA545C05D14000494135
S214400FB028BF41F0004130BD14F580043CBF01F528
S214400FC0801130BD01F0004545F0FE4141F470010E
S214400FD04FF0000030BD7FEA645C1ABF19461046E9
S214400FE07FEA655C1CBF0B46024650EA013406BFEA
S214400FF052EA033591EA030F41F4002130BD00BFA9
S21440100090F0000F04BF0021704730B54FF4806465
S21440101004F132044FF000054FF0000150E700BFE6
S21440102090F0000F04BF0021704730B54FF4806445
S21440103004F1320410F0004548BF40424FF0000132
S2144010403EE700BF42004FEAE2014FEA31014FEA75
S21440105002701FBF12F07F4393F07F4F81F06051C4
S214401060704792F0000F14BF93F07F4F704730B533
S2144010704FF4607401F0004521F0004120E700BFC6
S21440108050EA010208BF704730B54FF000050AE04D
S21440109050EA010208BF704730B511F0004502D54E
S2144010A0404261EB41014FF4806404F132045FEA50
S2144010B0915C3FF4DCAE4FF003025FEADC0C18BFF5
S2144010C003325FEADC0C18BF033202EBDC02C2F1EB
S2144010D0200300FA03FC20FA02F001FA03FE40EA7D
S2144010E00E0021FA02F11444C1E600BF70B54FF07D
S2144010F0FF0C4CF4E06C1CEA11541DBF1CEA13555F
S21440110094EA0C0F95EA0C0F00F0DEF82C4481EAC6
S214401110030621EA4C5123EA4C5350EA013518BFE6
S21440112052EA033541F4801143F4801338D0A0FBD3
S21440113002CE4FF00005E1FB02E506F00042E0FB80
S21440114003E54FF00006E1FB03569CF0000F18BF86
S2144011504EF0010EA4F1FF04B6F5007F64F540742E
S21440116004D25FEA4E0E6D4146EB060642EAC621C1
S21440117041EA55514FEAC52040EA5E504FEACE2E2E
S214401180B4F1FD0C88BFBCF5E06F1ED8BEF1004F31
S21440119008BF5FEA500E50F1000041EB045170BDAD
S2144011A006F0004646EA010140EA020081EA0301F1
S2144011B0B4EB5C04C2BFD4EB0C0541EA045170BDED
S2144011C041F480114FF0000E013C00F3AB8014F167
S2144011D0360FDEBF002001F0004170BDC4F10004B0
S2144011E0203C35DA0C341BDC04F11404C4F1200531
S2144011F000FA05F320FA04F001FA05F240EA02008C
S21440120001F0004221F0004110EBD37021FA04F6C1
S21440121042EB06015EEA430E08BF20EAD37070BD7B
S214401220C4F10C04C4F1200500FA04F320FA05F0DA
S21440123001FA04F240EA020001F0004110EBD370DC
S21440124041F100015EEA430E08BF20EAD37070BD4C
S214401250C4F1200500FA05F24EEA020E20FA04F325
S21440126001FA05F243EA020321FA04F001F00041D4
S21440127021FA04F220EA020000EBD3705EEA430E45
S21440128008BF20EAD37070BD94F0000F0FD101F074
S2144012900046400041EB010111F4801F08BF013CAD
S2144012A0F7D041EA060195F0000F18BF704703F0EB
S2144012B00046520043EB030313F4801F08BF013D72
S2144012C0F7D043EA0603704794EA0C0F0CEA13552E
S2144012D018BF95EA0C0F0CD050EA410618BF52EAE8
S2144012E04306D1D181EA030101F000414FF00000EE
S2144012F070BD50EA410606BF1046194652EA4306FC
S21440130019D094EA0C0F02D150EA013613D195EA6F
S2144013100C0F05D152EA03361CBF104619460AD1B7
S21440132081EA030101F0004141F0FE4141F47001C1
S2144013304FF0000070BD41F0FE4141F4780170BDB1
S21440134070B54FF0FF0C4CF4E06C1CEA11541DBF16
S2144013501CEA135594EA0C0F95EA0C0F00F0A7F818
S214401360A4EB050481EA030E52EA03354FEA013145
S21440137000F088804FEA03334FF0805545EA131358
S21440138043EA12634FEA022245EA111545EA106520
S2144013904FEA00260EF000419D4208BF964244F1B7
S2144013A0FD0404F5407402D25B084FEA3202B61AD6
S2144013B065EB03055B084FEA32024FF480104FF4AA
S2144013C0002CB6EB020E75EB030E22BFB61A75461E
S2144013D040EA0C005B084FEA3202B6EB020E75EBB1
S2144013E0030E22BFB61A754640EA5C005B084FEA19
S2144013F03202B6EB020E75EB030E22BFB61A7546E6
S21440140040EA9C005B084FEA3202B6EB020E75EBF0
S214401410030E22BFB61A754640EADC0055EA060EB1
S21440142018D04FEA051545EA16754FEA06164FEAF4
S214401430C30343EA52734FEAC2025FEA1C1CC0D1A0
S21440144011F4801F0BD141EA00014FF000004FF02D
S214401450004CB6E711F4801F04BF01430020B4F1EE
S214401460FD0C88BFBCF5E06F3FF6AFAEB5EB030CA6
S21440147004BFB6EB020C5FEA500C50F1000041EBA3
S214401480045170BD0EF0004E4EEA113114EB5C0470
S214401490C2BFD4EB0C0541EA045170BD41F4801143
S2144014A04FF0000E013C90E645EA060E8DE60CEA4B
S2144014B0135594EA0C0F08BF95EA0C0F3FF43BAF68
S2144014C094EA0C0F0AD150EA01347FF434AF95EA1F
S2144014D00C0F7FF425AF104619462CE795EA0C0F03
S2144014E006D152EA03353FF4FDAE1046194622E7D0
S2144014F050EA410618BF52EA43067FF4C5AE50EAAA
S21440150041047FF40DAF52EA43057FF4EBAE12E799
S2144015104A0011D212F5001211D20DD56FF478732D
S214401520B3EB62520ED44FEAC12343F0004343EA82
S214401530505323FA02F070474FF00000704750EACD
S214401540013002D14FF0FF3070474FF00000704737
S21440155070B50D4E0D4CA41BA4100025A54209D114
S2144015600B4E0C4C00F088F8A41BA4100025A54296
S21440157005D170BD56F8253098470135EEE756F848
S214401580253098470135F2E784164000841640001F
S21440159084164000881640002E2E2F68616C2F73EC
S2144015A072632F68616C5F6932635F6D5F73796EDB
S2144015B0632E63002E2E2F68616C2F7372632F6824
S2144015C0616C5F696F2E63002E2E2F68616C2F73DF
S2144015D072632F68616C5F717370695F73796E6355
S2144015E02E6300002E2E2F68616C2F7372632F6857
S2144015F0616C5F7370695F6D5F73796E632E6300B5
S2144016002E2E2F68706C2F717370692F68706C5F08
S214401610717370692E6300000000000000000080B7
S2144016200100000002DC9604FFFF00002E2E2F680B
S214401630706C2F7370692F68706C5F7370692E635F
S2144016400000000000800140200000000000000074
S21440165000000000BABA0200F04902002E2E2F68A1
S214401660706C2F74776968732F68706C5F747769D5
S21440167068732E6300000000F8B500BFF8BC08BCD5
S2144016809E4670478D014000F8B500BFF8BC08BCC8
S20C4016909E46704769014000C8
S804400000BB
